S01800004850425F6C765F706F7765725F7379732E73726563A7
S11300000C943C000C944E000C944E000C94520141
S11300100C944E000C944E000C944E000C944E0024
S11300200C944E000C944E000C944E000C944E0014
S11300300C944E000C944E000C944E000C944E0004
S11300400C944E000C944E000C945A020C944E00E6
S11300500C944E000C944E000C944E000C94AF0083
S11300600C944E000C944E000C944E000C944E00D4
S11300700C944E000C944E0011241FBECFEFCDBF44
S1130080DFE3DEBF28E3A0E0B8E301C01D92AD3694
S1130090B207E1F70E947A010C94A0020C940000CC
S11300A0EF92FF921F93CF93DF938FEF80930538E6
S11300B010E020C0E12EF12CE701CC0FDD1FFE0182
S11300C0EA5FF74C8EEF9FEF80839183C701805CDA
S11300D09F4F0E949302FE01E65EF74C808391835A
S11300E0C701805B9F4F0E949302C05FD74C8883F7
S11300F099831F5F1530F0F2E0EAF0E082E080833C
S11301008183E0E0F6E081E081838EE2828383E014
S1130110808780E090E0DF91CF911F91FF90EF9076
S11301200895809105388F3F19F481E090E0089597
S113013080E090E00895809105388F3F69F4109233
S11301400538E0E0F6E088E0848782E0848381E09B
S1130150828780E090E008958FEF9FEF08951F92CB
S11301600F920FB60F9211248F939F93AF93BF9367
S1130170EF93FF93E0910538AE2FB0E08091140621
S113018090911506AA0FBB1FAA5FB74C8D939C9341
S1130190EF5FE0930538E53050F4F0E0E857FA47B4
S11301A08081E0E0F6E0848781E0828705C01092D8
S11301B004068FEF80930538FF91EF91BF91AF91C3
S11301C09F918F910F900FBE0F901F9018951092D2
S11301D0253810922638109227381092283888ED46
S11301E084BFE0E6F0E093E0918384BF82E0808FF7
S11301F0E0E4F1E08DEC9CE08287938781E08283E8
S1130200178281E8808389E391E080932B3890936F
S11302102C3881ED90E08093293890932A3888E037
S11302208093000A80E090E00895AC018091293821
S113023090912A388417950708F0CA0160912B38E9
S113024070912C38869F9001879F300D969F300DBA
S113025011242093260A3093270A1092200A109220
S1130260210AE0E0FAE080818160808321E030E0CF
S113027006C090910B0A90FF02C020E030E02115E7
S11302803105B9F7E0E0FAE081E0838780818E7F71
S113029080838091293890912A388417950708F033
S11302A0CA0108951F920F920FB60F9211248F93D3
S11302B09F93AF93BF938091253890912638A09156
S11302C02738B09128380196A11DB11D8093253897
S11302D090932638A0932738B093283881E08093F0
S11302E04301BF91AF919F918F910F900FBE0F90DB
S11302F01F901895109204381092243880E090E0F2
S113030005C0FC01E35DF74C108201968E31910526
S1130310C4F3E0E4F4E090E29183958380E1818387
S11303208683E0E0F4E088E0818386839283858B92
S11303300E94E7000E94EE01789483E1E4E4F5E88A
S1130340ADE2B8E301900D928A95E1F78DE298E36E
S11303500E94140282E090E00E9415010E94500065
S1130360892B51F08CE0E8E5F5E8ADE2B8E30190C3
S11303700D928A95E1F709C08DE0E5E6F5E8ADE276
S1130380B8E301900D928A95E1F78DE298E30E941B
S1130390140282E090E00E9415010E949B00892BC8
S11303A069F084E1E3E7F5E8ADE2B8E301900D928A
S11303B08A95E1F78DE298E30E94140281E080932C
S11303C0043880E2809346040E949B000E949100BE
S11303D002C00E949100892BE1F3F6CF80E090E007
S11303E0DC0107C0FC01E55BF74C10820196A11DFE
S11303F0B11D80329105A105B105A0F38FEF809363
S11304006C3810926B38E0E2F4E084E081838683F8
S1130410E0E0F8E087E590E080879187868180645A
S1130420868380E090E00895AC0180916C38882345
S1130430DCF541155105D9F110926C3810926B38E6
S113044013C0FA01E90FF11D97FDFA9520812223CB
S113045079F0E92F092E000CFF0BE55BF74C2083A4
S113046081E0890F80936C3890916C3890324CF312
S1130470911106C08FEF80936B3880E090E008956F
S1130480E0916B38F0E0E55BF74C8081E0E0F8E068
S1130490828380916B388F5F80936B3880E2858391
S11304A0892F990F990B08958FEF9FEF08958EEF81
S11304B09FEF08951F920F920FB60F9211242F935E
S11304C03F938F939F93EF93FF9320916B3830E08A
S11304D080916C38082E000C990B2817390774F496
S11304E0E0916B38F0E0E55BF74C80818093020883
S11304F080916B388F5F80936B380AC08FEF809345
S11305006C3810926B38E0E0F8E085818F7D85834C
S1130510FF91EF919F918F913F912F910F900FBE7B
S11305200F901F9018950E949C02808191810895DC
S113053003D0808199270895FC01E050FC4E089572
S1070540F894FFCF59
S11305440A0A496E697469616C697A696E672E2E48
S11305542E0A0000414443202D20446F6E650A0096
S113056400414443202D204572726F720A00000A30
S11305744552524F522072756E6E696E6720414423
S10C0584430A00000806070931CE
S9030000FC
